:1000000012C02CC02BC02AC029C028C027C026C0BF
:1000100025C024C023C022C021C020C01FC01EC0D4
:100020001DC01CC01BC011241FBECFE5D4E0DEBF25
:10003000CDBF10E0A0E6B0E0E6E3F1E002C005903D
:100040000D92A037B107D9F710E0A0E7B0E001C0EA
:100050001D92A837B107E1F74CD06BC0D1CF8FEE1E
:1000600087BB80E284BB8EEF81BB10BC83E389B980
:1000700088E18AB986E880BD81E690E090937500BA
:100080008093740008951F93182F8A3011F48DE027
:10009000FADF5D9BFECF1CB980E090E01F910895D0
:1000A0005F9BFECF8CB108950BC020E000000000E4
:1000B00000000000000000002F5F2A35B9F701970B
:1000C000009799F708951F9310E615BB8091600083
:1000D00090E0EADF15BA80EA90E0E6DF15BB809198
:1000E000600090E0E1DF15BA80EA90E0DDDF1F916B
:1000F0000895B5DF5F9BFECF8CB180937100803394
:1001000031F4809160008F3058F48F5F07C08533E1
:1001100039F4809160008C3018F081508093600039
:10012000D2DFD1DFD0DFCFDFCEDFCDDFCCDFCBDF63
:06013000E1CFF894FFCFBF
:100136000D00000002000000004300000000000067
:00000001FF
